:100000000C9435000C945D000C945D000C945D0024
:100010000C945D000C945D000C945D000C945D00EC
:100020000C945D000C945D000C945D000C945D00DC
:100030000C945D000C945D000C945D000C945D00CC
:100040000C94FF010C945D000C94CD010C94A7015D
:100050000C945D000C945D000C945D000C945D00AC
:100060000C945D000C945D00490211241FBECFEF7B
:10007000D8E0DEBFCDBF21E0AEE2B1E001C01D920D
:10008000A83DB207E1F711E0A0E0B1E0E0E2FBE05B
:1000900002C005900D92AE32B107D9F710E0C5E36A
:1000A000D0E004C02197FE010E948C03C433D10725
:1000B000C9F70E9476020C948E050C940000CF9232
:1000C000DF92EF92FF920F931F93CF93DF936C0118
:1000D0007A018B01C0E0D0E0CE15DF0581F0D801B8
:1000E0006D918D01D601ED91FC910190F081E02D93
:1000F000C6010995892B11F02196EECF7E01C7012B
:10010000DF91CF911F910F91FF90EF90DF90CF90F3
:100110000895FC01448155816081718187E391E0FC
:100120000E945F0042E050E068E171E087E391E007
:100130000C945F00089580E090E00895FC01538DD9
:10014000448D252F30E0842F90E0821B930B5417B1
:1001500010F0CF96089501970895FC01918D828D3E
:10016000981761F0828DDF01A80FB11D5D968C910B
:10017000928D9F5F9F73928F90E008958FEF9FEF16
:100180000895FC01918D828D981731F0828DE80FD2
:10019000F11D858D90E008958FEF9FEF0895FC018C
:1001A000918D228D892F90E0805C9F4F821B910959
:1001B0008F739927089587E391E00E94CF0021E093
:1001C000892B09F420E0822F0895FC01848DDF0142
:1001D000A80FB11DA35ABF4F2C91848D90E00196BA
:1001E0008F739927848FA689B7892C93A089B189A9
:1001F0008C91837080648C93938D848D981306C04A
:100200000288F389E02D80818F7D80830895EF92AD
:10021000FF920F931F93CF93DF93EC0181E0888FC0
:100220009B8D8C8D981305C0E889F989808185FDA7
:1002300026C0F62E0B8D10E00F5F1F4F0F73112796
:10024000E02E8C8DE8120CC00FB607FCFACFE889BF
:10025000F989808185FFF5CFCE010E94E500F1CFBD
:100260008B8DFE01E80FF11DE35AFF4FF0829FB71F
:10027000F8940B8FEA89FB89808180620AC09FB75E
:10028000F894EE89FF896083E889F9898081837019
:10029000806480839FBF81E090E0DF91CF911F91C8
:1002A0000F91FF90EF900895CF93DF93EC01888D2D
:1002B0008823C9F0EA89FB89808185FD05C0A8896A
:1002C000B9898C9186FD0FC00FB607FCF5CF8081F0
:1002D00085FFF2CFA889B9898C9185FFEDCFCE013A
:1002E0000E94E500E7CFDF91CF91089580E090E094
:1002F000892B29F00E94DB0081110C9400000895E5
:100300003FB7F8948091330190913401A091350169
:10031000B091360126B5A89B05C02F3F19F0019674
:10032000A11DB11D3FBFBA2FA92F982F8827820F7B
:10033000911DA11DB11DBC01CD0142E0660F771FCB
:10034000881F991F4A95D1F708950E9479051F9239
:100350000F920FB60F9211242F933F934F935F93F9
:100360006F937F938F939F93AF93BF93EF93FF937D
:1003700087E391E00E94E500FF91EF91BF91AF917B
:100380009F918F917F916F915F914F913F912F91AD
:100390000F900FBE0F901F9018951F920F920FB6DF
:1003A0000F9211242F938F939F93EF93FF93E091DC
:1003B0004701F09148018081E0914D01F0914E019B
:1003C00082FD12C09081809150018F5F8F732091C8
:1003D0005101821751F0E0915001F0E0E95CFE4FCD
:1003E000958F8093500101C08081FF91EF919F9183
:1003F0008F912F910F900FBE0F901F9018951F9205
:100400000F920FB60F9211242F933F938F939F93C8
:10041000AF93BF9380912F0190913001A091310152
:10042000B091320130912E0123E0230F2D3720F4BB
:100430000196A11DB11D05C026E8230F0296A11D3E
:10044000B11D20932E0180932F0190933001A09332
:100450003101B09332018091330190913401A09128
:100460003501B09136010196A11DB11D8093330174
:1004700090933401A0933501B0933601BF91AF91B1
:100480009F918F913F912F910F900FBE0F901F90D2
:100490001895E7E3F1E01382128288EE93E0A0E082
:1004A000B0E084839583A683B7838AE091E091834B
:1004B000808385EC90E09587848784EC90E0978733
:1004C000868780EC90E0918B808B81EC90E0938B21
:1004D000828B82EC90E0958B848B86EC90E0978BFE
:1004E000868B118E128E138E148E0895CF93DF9308
:1004F00000D000D000D0CDB7DEB7789484B582604C
:1005000084BD84B5816084BD85B5826085BD85B5B7
:10051000816085BD80916E00816080936E00109235
:1005200081008091810082608093810080918100B0
:100530008160809381008091800081608093800041
:100540008091B10084608093B1008091B00081609F
:100550008093B00080917A00846080937A008091CB
:100560007A00826080937A0080917A008160809323
:100570007A0080917A00806880937A001092C1009E
:10058000E0914701F091480182E08083E0914301CE
:10059000F09144011082E0914501F091460180E123
:1005A000808310924F01E0914B01F0914C0186E065
:1005B0008083E0914901F0914A01808180618083CC
:1005C000E0914901F0914A01808188608083E09147
:1005D0004901F0914A01808180688083E09149015E
:1005E000F0914A0180818F7D808302E110E01A82C0
:1005F00019821C821B821E821D8263E170E080E0F2
:1006000090E00E94B304009761F09A8389831C8371
:100610000B832D813E81232B09F040C0FC01108209
:100620003DC089819A81009711F00E942A041A82A4
:1006300019821E821D821C821B82CE0101960E949D
:10064000890089819A810E942A040E9480016B019D
:100650007C0184E6882E912CA12CB12C0E94800173
:10066000DC01CB018C199D09AE09BF09883E93407E
:10067000A105B10598F3F1E08F1A9108A108B1081E
:1006800028EEC20E23E0D21EE11CF11C811491045D
:10069000A104B10419F70E947601A9CF1E830D832E
:1006A0006BE171E00E948705C8CF2F923F924F9275
:1006B0005F926F927F928F929F92AF92BF92CF92F2
:1006C000DF92EF92FF920F931F93CF93DF93CDB7FB
:1006D000DEB7CA1BDB0B0FB6F894DEBF0FBECDBF73
:1006E00009942A88398848885F846E847D848C8444
:1006F0009B84AA84B984C884DF80EE80FD800C814D
:100700001B81AA81B981CE0FD11D0FB6F894DEBF2F
:100710000FBECDBFED010895EE0FFF1F0590F491C0
:10072000E02D09940F931F93CF93DF9382309105AF
:1007300010F482E090E0E091D601F091D70120E042
:1007400030E0A0E0B0E0309719F1408151810281A2
:10075000138148175907C8F08417950769F4109753
:1007600031F012960C93129713961C9327C00093A6
:10077000D6011093D70122C02115310519F0421777
:10078000530718F49A01BD01EF01DF01F801DBCF37
:1007900021153105F9F0281B390B2430310580F47F
:1007A0008A819B816115710521F0FB01938382830E
:1007B00004C09093D7018093D601FE01329644C0C5
:1007C000FE01E20FF31F8193919322503109398387
:1007D00028833AC02091D4013091D501232B41F4D4
:1007E00020910201309103013093D5012093D4016F
:1007F00020910001309101012115310541F42DB7FF
:100800003EB74091040150910501241B350BE09146
:10081000D401F091D501E217F307A0F42E1B3F0B92
:100820002817390778F0AC014E5F5F4F2417350762
:1008300048F04E0F5F1F5093D5014093D401819330
:10084000919302C0E0E0F0E0CF01DF91CF911F91E2
:100850000F910895CF93DF93009709F481C0FC01B5
:10086000329713821282A091D601B091D7011097CE
:1008700081F420813181820F931F2091D401309126
:10088000D5012817390751F5F093D501E093D4012C
:1008900067C0ED0120E030E0CE17DF0740F44A8169
:1008A0005B819E0141155105F1F0EA01F5CFD3833B
:1008B000C28340815181840F951FC817D90759F40D
:1008C00088819981840F951F0296918380838A8104
:1008D0009B81938382832115310529F4F093D701FD
:1008E000E093D6013DC0E901FB83EA834991599128
:1008F000C40FD51FEC17FD0761F480819181840F2F
:10090000951F0296E90199838883828193819B8355
:100910008A83E0E0F0E012968D919C911397009706
:1009200019F0FD01DC01F7CF8D919C9111979D018C
:100930002E5F3F4F820F931F2091D4013091D5013C
:100940002817390769F4309729F41092D7011092CB
:10095000D60102C013821282B093D501A093D401B4
:10096000DF91CF910895A0E0B0E0E9EBF4E00C94C2
:100970005903EC01009721F4CB010E949203B4C00B
:10098000FC01E60FF71F9C0122503109E217F30723
:1009900008F4A8C0D9010D911C91119706171707EB
:1009A000B0F00530110508F49BC0C8010497861704
:1009B000970708F495C002501109061B170B019305
:1009C00011936D937C93CF010E942A0489C05B012F
:1009D000A01AB10A4C01800E911EA091D601B091CF
:1009E000D701612C712CE12CF12C109709F446C031
:1009F0008D919C911197A815B905B1F56C0142E054
:100A0000C40ED11CCA14DB0478F14C018A189B086F
:100A1000640142E0C40ED11C1296BC90129713964A
:100A2000AC91B5E0CB16D10440F0B282A3839182A1
:100A30008082D9016D937C9309C00E5F1F4F800F98
:100A4000911FF90191838083EB2DFA2FE114F104BA
:100A500031F0D7011396FC93EE93129741C0F093B7
:100A6000D701E093D6013CC06816790608F43C0132
:100A70007D0112960D90BC91A02DB7CF8091D4012D
:100A80009091D50188169906E1F466167706C8F4A8
:100A90008091000190910101009741F48DB79EB7BC
:100AA0004091040150910501841B950BE817F9074B
:100AB000C8F4F093D501E093D401F9017183608308
:100AC0000FC0CB010E9492037C01009759F0A8014E
:100AD000BE010E947E05CE010E942A04C70104C007
:100AE000CE0102C080E090E0CDB7DEB7EEE00C941E
:100AF000750381E090E0F8940C948E05FB01DC0115
:100B000002C001900D9241505040D8F70895FB016A
:100B1000DC0101900D920020E1F70895F894FFCFD9
:100B20000000D80180000000000007015F009E0067
:100B30005401CF00AD00C1000D0A0048656C6C6F18
:0E0B40002056697375616C204D6963726F00F9
:107E0000112484B714BE81FFF0D085E080938100F7
:107E100082E08093C00088E18093C10086E0809377
:107E2000C20080E18093C4008EE0C9D0259A86E02C
:107E300020E33CEF91E0309385002093840096BBD3
:107E4000B09BFECF1D9AA8958150A9F7CC24DD24C4
:107E500088248394B5E0AB2EA1E19A2EF3E0BF2EE7
:107E6000A2D0813461F49FD0082FAFD0023811F036
:107E7000013811F484E001C083E08DD089C08234E0
:107E800011F484E103C0853419F485E0A6D080C0E4
:107E9000853579F488D0E82EFF2485D0082F10E0AE
:107EA000102F00270E291F29000F111F8ED06801E7
:107EB0006FC0863521F484E090D080E0DECF843638
:107EC00009F040C070D06FD0082F6DD080E0C81688
:107ED00080E7D80618F4F601B7BEE895C0E0D1E017
:107EE00062D089930C17E1F7F0E0CF16F0E7DF06D8
:107EF00018F0F601B7BEE89568D007B600FCFDCFD4
:107F0000A601A0E0B1E02C9130E011968C91119780
:107F100090E0982F8827822B932B1296FA010C0160
:107F200087BEE89511244E5F5F4FF1E0A038BF0790
:107F300051F7F601A7BEE89507B600FCFDCF97BE46
:107F4000E89526C08437B1F42ED02DD0F82E2BD052
:107F50003CD0F601EF2C8F010F5F1F4F84911BD097
:107F6000EA94F801C1F70894C11CD11CFA94CF0C13
:107F7000D11C0EC0853739F428D08EE10CD085E9AC
:107F80000AD08FE07ACF813511F488E018D01DD067
:107F900080E101D065CF982F8091C00085FFFCCF94
:107FA0009093C60008958091C00087FFFCCF809118
:107FB000C00084FD01C0A8958091C6000895E0E648
:107FC000F0E098E1908380830895EDDF803219F02E
:107FD00088E0F5DFFFCF84E1DECF1F93182FE3DFCA
:107FE0001150E9F7F2DF1F91089580E0E8DFEE27F6
:047FF000FF270994CA
:027FFE00040479
:0400000300007E007B
:00000001FF