:100000000C9462000C948A000C948A000C948A0070
:100010000C948A000C948A000C948A000C948A0038
:100020000C948A000C948A000C948A000C940B03A4
:100030000C948A000C948A000C948A000C948A0018
:100040000C94C1020C948A000C948F020C946902E7
:100050000C948A000C948A000C948A000C948A00F8
:100060000C948A000C948A000000000024002700F1
:100070002A0000000000250028002B0000000000DE
:1000800023002600290004040404040404040202DA
:100090000202020203030303030301020408102007
:1000A0004080010204081020010204081020000012
:1000B0000008000201000003040700000000000027
:1000C00000006F0311241FBECFEFD8E0DEBFCDBF0D
:1000D00011E0A0E0B1E0E2ECF9E002C005900D9281
:1000E000A232B107D9F721E0A2E2B1E001C01D922E
:1000F000AF3EB207E1F710E0C2E6D0E004C02197BE
:10010000FE010E94D404C136D107C9F70E94A6039C
:100110000C94DF040C940000CF92DF92EF92FF92D8
:100120000F931F93CF93DF936C017A018B01C0E093
:10013000D0E0CE15DF0581F0D8016D918D01D6019B
:10014000ED91FC910190F081E02DC6010995892B7C
:1001500011F02196EECF7E01C701DF91CF911F9163
:100160000F91FF90EF90DF90CF900895089580E079
:1001700090E00895FC01538D448D252F30E0842FAD
:1001800090E0821B930B541710F0CF9608950197BF
:100190000895FC01918D828D981761F0828DDF01A9
:1001A000A80FB11D5D968C91928D9F5F9F73928F6A
:1001B00090E008958FEF9FEF0895FC01918D828D5F
:1001C000981731F0828DE80FF11D858D90E008952C
:1001D0008FEF9FEF0895FC01918D228D892F90E084
:1001E000805C9F4F821B91098F739927089580E54A
:1001F00091E00E94EB0021E0892B09F420E0822F9E
:100200000895FC01848DDF01A80FB11DA35ABF4FD3
:100210002C91848D90E001968F739927848FA68905
:10022000B7892C93A089B1898C91837080648C9359
:10023000938D848D981306C00288F389E02D808108
:100240008F7D80830895EF92FF920F931F93CF933A
:10025000DF93EC0181E0888F9B8D8C8D981305C016
:10026000E889F989808185FD26C0F62E0B8D10E086
:100270000F5F1F4F0F731127E02E8C8DE8120CC0FB
:100280000FB607FCFACFE889F989808185FFF5CFA1
:10029000CE010E940101F1CF8B8DFE01E80FF11D0F
:1002A000E35AFF4FF0829FB7F8940B8FEA89FB89DE
:1002B000808180620AC09FB7F894EE89FF896083CD
:1002C000E889F98980818370806480839FBF81E0A1
:1002D00090E0DF91CF911F910F91FF90EF900895E3
:1002E000CF93DF93EC01888D8823C9F0EA89FB89DD
:1002F000808185FD05C0A889B9898C9186FD0FC0D4
:100300000FB607FCF5CF808185FFF2CFA889B989A8
:100310008C9185FFEDCFCE010E940101E7CFDF91E7
:10032000CF91089580E090E0892B29F00E94F7009A
:1003300081110C9400000895833081F028F48130FD
:1003400099F08230A1F008958730A9F08830B9F093
:100350008430D1F4809180008F7D03C08091800033
:100360008F7780938000089584B58F7702C084B51D
:100370008F7D84BD08958091B0008F7703C08091F8
:10038000B0008F7D8093B00008951F93CF93DF93CB
:10039000282F30E0F901E255FF4F8491F901E6562C
:1003A000FF4FD491F901EA57FF4FC491CC23C1F01C
:1003B000162F81110E949C01EC2FF0E0EE0FFF1F21
:1003C000EE58FF4FA591B4919FB7F894111104C056
:1003D0008C91D095D82302C0EC91DE2BDC939FBF8B
:1003E000DF91CF911F910895CF93DF9390E0FC01AF
:1003F000E656FF4F2491FC01EA57FF4F8491882372
:1004000061F190E0880F991FFC01E859FF4FC591F9
:10041000D491FC01EE58FF4FA591B491611109C030
:100420009FB7F8948881209582238883EC912E23AE
:100430000BC0623061F49FB7F8948881322F3095F9
:1004400083238883EC912E2B2C939FBF06C08FB7FC
:10045000F894E8812E2B28838FBFDF91CF910895E8
:100460003FB7F89480914C0190914D01A0914E01BD
:10047000B0914F0126B5A89B05C02F3F19F00196FA
:10048000A11DB11D3FBFBA2FA92F982F8827820F1A
:10049000911DA11DB11DBC01CD0142E0660F771F6A
:1004A000881F991F4A95D1F70895009769F0FC01BC
:1004B00001900020E9F73197AF01481B590BBC01AF
:1004C00080E591E00C948C0080E090E008950E941B
:1004D000DA041F920F920FB60F9211242F933F93BD
:1004E0004F935F936F937F938F939F93AF93BF933C
:1004F000EF93FF9380E591E00E940101FF91EF915E
:10050000BF91AF919F918F917F916F915F914F912B
:100510003F912F910F900FBE0F901F9018951F9233
:100520000F920FB60F9211242F938F939F93EF93F7
:10053000FF93E0916001F09161018081E09166019B
:10054000F091670182FD12C09081809169018F5FF7
:100550008F7320916A01821751F0E0916901F0E0F8
:10056000E05BFE4F958F8093690101C08081FF9110
:10057000EF919F918F912F910F900FBE0F901F9031
:1005800018951F920F920FB60F9211242F933F933D
:100590008F939F93AF93BF938091480190914901AE
:1005A000A0914A01B0914B013091470123E0230F04
:1005B0002D3720F40196A11DB11D05C026E8230F9B
:1005C0000296A11DB11D209347018093480190938D
:1005D0004901A0934A01B0934B0180914C01909145
:1005E0004D01A0914E01B0914F010196A11DB11D89
:1005F00080934C0190934D01A0934E01B0934F0115
:10060000BF91AF919F918F913F912F910F900FBE0E
:100610000F901F9018951F920F920FB60F921124F2
:100620002F933F938F939F93EF93FF938091460176
:1006300087FF05C0109285001092840005C080914C
:10064000460187FD80914601809146018F5F80932E
:1006500046018091460187FF20C0809146018C3081
:10066000E4F4209184003091850080914601082EA9
:10067000000C990BFC01EE0FFF1F8E0F9F1FFC015A
:10068000EE5DFE4F81819281820F931F90938900CE
:10069000809388008091460117C0809184009091DA
:1006A0008500049680349C4918F480E49CE905C0D8
:1006B00080918400909185000496909389008093A6
:1006C00088008FEF80934601FF91EF919F918F916A
:1006D0003F912F910F900FBE0F901F901895E0E55E
:1006E000F1E01382128288EE93E0A0E0B0E0848310
:1006F0009583A683B78384E091E09183808385EC22
:1007000090E09587848784EC90E09787868780ECDB
:1007100090E0918B808B81EC90E0938B828B82ECCC
:1007200090E0958B848B86EC90E0978B868B118E76
:10073000128E138E148E61E087E00E94F40187E030
:1007400090E09093EE018093ED010895CF93DF93B5
:10075000CDB7DEB7A1970FB6F894DEBF0FBECDBF01
:10076000789484B5826084BD84B5816084BD85B58C
:10077000826085BD85B5816085BD80916E00816098
:1007800080936E001092810080918100826080933E
:100790008100809181008160809381008091800040
:1007A0008160809380008091B10084608093B1006B
:1007B0008091B00081608093B00080917A00846065
:1007C00080937A0080917A00826080937A00809191
:1007D0007A00816080937A0080917A0080688093AB
:1007E0007A001092C100E0916001F091610182E015
:1007F0008083E0915C01F0915D011082E0915E01E7
:10080000F0915F018FEC808310926801E0916401A8
:10081000F091650186E08083E0916201F0916301CF
:10082000808180618083E0916201F0916301808129
:1008300088608083E0916201F0916301808180682B
:100840008083E0916201F091630180818F7D8083DC
:1008500061E082E00E94F40160E083E00E94F40124
:1008600060E082E00E94F40160E082E00E94C50145
:1008700082E191E00E9455028FE191E00E945502D1
:100880002CE9222E20E0322E08E810E03AE0432E38
:10089000512C612C712CE0EBF0E08491F101F4908B
:1008A000F801E490EE20A1F081110E949C01EE2D50
:1008B000F0E0EE0FFF1FE458FF4FA591B4918C912B
:1008C000F82291E080E009F490E0292F382F02C04F
:1008D00020E030E0032E000C440B550B19A27E01E2
:1008E000F1E2EF0EF11CCA01B901A30192010E94CD
:1008F000B204605DF70162937F0121153105410566
:10090000510589F7CF010E9455028FE191E00E94C5
:1009100055020E9430026B017C0184E6882E912CE6
:10092000A12CB12C0E943002DC01CB018C199D0955
:10093000AE09BF09883E9340A105B10598F3F1E0E7
:100940008F1A9108A108B10828EEC20E23E0D21E2A
:10095000E11CF11C81149104A104B10419F70E9457
:10096000920199CFA1E21A2EAA1BBB1BFD010DC05B
:10097000AA1FBB1FEE1FFF1FA217B307E407F5074F
:1009800020F0A21BB30BE40BF50B661F771F881F2B
:10099000991F1A9469F760957095809590959B01C1
:1009A000AC01BD01CF010895EE0FFF1F0590F4913A
:1009B000E02D099481E090E0F8940C94DF04F89421
:0209C000FFCF67
:1009C2000000000023018C00BA007001EB00C90096
:1009D200DD00EC858BEC9785EC9984EBA38C000D04
:0209E2000A0009
:107E0000112484B714BE81FFF0D085E080938100F7
:107E100082E08093C00088E18093C10086E0809377
:107E2000C20080E18093C4008EE0C9D0259A86E02C
:107E300020E33CEF91E0309385002093840096BBD3
:107E4000B09BFECF1D9AA8958150A9F7CC24DD24C4
:107E500088248394B5E0AB2EA1E19A2EF3E0BF2EE7
:107E6000A2D0813461F49FD0082FAFD0023811F036
:107E7000013811F484E001C083E08DD089C08234E0
:107E800011F484E103C0853419F485E0A6D080C0E4
:107E9000853579F488D0E82EFF2485D0082F10E0AE
:107EA000102F00270E291F29000F111F8ED06801E7
:107EB0006FC0863521F484E090D080E0DECF843638
:107EC00009F040C070D06FD0082F6DD080E0C81688
:107ED00080E7D80618F4F601B7BEE895C0E0D1E017
:107EE00062D089930C17E1F7F0E0CF16F0E7DF06D8
:107EF00018F0F601B7BEE89568D007B600FCFDCFD4
:107F0000A601A0E0B1E02C9130E011968C91119780
:107F100090E0982F8827822B932B1296FA010C0160
:107F200087BEE89511244E5F5F4FF1E0A038BF0790
:107F300051F7F601A7BEE89507B600FCFDCF97BE46
:107F4000E89526C08437B1F42ED02DD0F82E2BD052
:107F50003CD0F601EF2C8F010F5F1F4F84911BD097
:107F6000EA94F801C1F70894C11CD11CFA94CF0C13
:107F7000D11C0EC0853739F428D08EE10CD085E9AC
:107F80000AD08FE07ACF813511F488E018D01DD067
:107F900080E101D065CF982F8091C00085FFFCCF94
:107FA0009093C60008958091C00087FFFCCF809118
:107FB000C00084FD01C0A8958091C6000895E0E648
:107FC000F0E098E1908380830895EDDF803219F02E
:107FD00088E0F5DFFFCF84E1DECF1F93182FE3DFCA
:107FE0001150E9F7F2DF1F91089580E0E8DFEE27F6
:047FF000FF270994CA
:027FFE00040479
:0400000300007E007B
:00000001FF